{
  "_format": "hh-sol-artifact-1",
  "contractName": "ThugCity",
  "sourceName": "contracts/ThugCity.sol",
  "abi": [
    {
      "inputs": [],
      "stateMutability": "nonpayable",
      "type": "constructor"
    },
    {
      "inputs": [],
      "name": "ApprovalCallerNotOwnerNorApproved",
      "type": "error"
    },
    {
      "inputs": [],
      "name": "ApprovalQueryForNonexistentToken",
      "type": "error"
    },
    {
      "inputs": [],
      "name": "ApproveToCaller",
      "type": "error"
    },
    {
      "inputs": [],
      "name": "BalanceQueryForZeroAddress",
      "type": "error"
    },
    {
      "inputs": [],
      "name": "MintERC2309QuantityExceedsLimit",
      "type": "error"
    },
    {
      "inputs": [],
      "name": "MintToZeroAddress",
      "type": "error"
    },
    {
      "inputs": [],
      "name": "MintZeroQuantity",
      "type": "error"
    },
    {
      "inputs": [],
      "name": "OwnerQueryForNonexistentToken",
      "type": "error"
    },
    {
      "inputs": [],
      "name": "OwnershipNotInitializedForExtraData",
      "type": "error"
    },
    {
      "inputs": [],
      "name": "TransferCallerNotOwnerNorApproved",
      "type": "error"
    },
    {
      "inputs": [],
      "name": "TransferFromIncorrectOwner",
      "type": "error"
    },
    {
      "inputs": [],
      "name": "TransferToNonERC721ReceiverImplementer",
      "type": "error"
    },
    {
      "inputs": [],
      "name": "TransferToZeroAddress",
      "type": "error"
    },
    {
      "inputs": [],
      "name": "URIQueryForNonexistentToken",
      "type": "error"
    },
    {
      "anonymous": false,
      "inputs": [
        {
          "indexed": true,
          "internalType": "address",
          "name": "owner",
          "type": "address"
        },
        {
          "indexed": true,
          "internalType": "address",
          "name": "approved",
          "type": "address"
        },
        {
          "indexed": true,
          "internalType": "uint256",
          "name": "tokenId",
          "type": "uint256"
        }
      ],
      "name": "Approval",
      "type": "event"
    },
    {
      "anonymous": false,
      "inputs": [
        {
          "indexed": true,
          "internalType": "address",
          "name": "owner",
          "type": "address"
        },
        {
          "indexed": true,
          "internalType": "address",
          "name": "operator",
          "type": "address"
        },
        {
          "indexed": false,
          "internalType": "bool",
          "name": "approved",
          "type": "bool"
        }
      ],
      "name": "ApprovalForAll",
      "type": "event"
    },
    {
      "anonymous": false,
      "inputs": [
        {
          "indexed": true,
          "internalType": "uint256",
          "name": "fromTokenId",
          "type": "uint256"
        },
        {
          "indexed": false,
          "internalType": "uint256",
          "name": "toTokenId",
          "type": "uint256"
        },
        {
          "indexed": true,
          "internalType": "address",
          "name": "from",
          "type": "address"
        },
        {
          "indexed": true,
          "internalType": "address",
          "name": "to",
          "type": "address"
        }
      ],
      "name": "ConsecutiveTransfer",
      "type": "event"
    },
    {
      "anonymous": false,
      "inputs": [
        {
          "indexed": true,
          "internalType": "address",
          "name": "previousOwner",
          "type": "address"
        },
        {
          "indexed": true,
          "internalType": "address",
          "name": "newOwner",
          "type": "address"
        }
      ],
      "name": "OwnershipTransferred",
      "type": "event"
    },
    {
      "anonymous": false,
      "inputs": [
        {
          "indexed": true,
          "internalType": "address",
          "name": "from",
          "type": "address"
        },
        {
          "indexed": true,
          "internalType": "address",
          "name": "to",
          "type": "address"
        },
        {
          "indexed": true,
          "internalType": "uint256",
          "name": "tokenId",
          "type": "uint256"
        }
      ],
      "name": "Transfer",
      "type": "event"
    },
    {
      "inputs": [],
      "name": "MINT_FIVE_PRICE",
      "outputs": [
        {
          "internalType": "uint256",
          "name": "",
          "type": "uint256"
        }
      ],
      "stateMutability": "view",
      "type": "function"
    },
    {
      "inputs": [],
      "name": "MINT_THREE_PRICE",
      "outputs": [
        {
          "internalType": "uint256",
          "name": "",
          "type": "uint256"
        }
      ],
      "stateMutability": "view",
      "type": "function"
    },
    {
      "inputs": [
        {
          "internalType": "address",
          "name": "to",
          "type": "address"
        },
        {
          "internalType": "uint256",
          "name": "count",
          "type": "uint256"
        }
      ],
      "name": "airdrop",
      "outputs": [],
      "stateMutability": "nonpayable",
      "type": "function"
    },
    {
      "inputs": [
        {
          "internalType": "address",
          "name": "to",
          "type": "address"
        },
        {
          "internalType": "uint256",
          "name": "tokenId",
          "type": "uint256"
        }
      ],
      "name": "approve",
      "outputs": [],
      "stateMutability": "nonpayable",
      "type": "function"
    },
    {
      "inputs": [
        {
          "internalType": "address",
          "name": "owner",
          "type": "address"
        }
      ],
      "name": "balanceOf",
      "outputs": [
        {
          "internalType": "uint256",
          "name": "",
          "type": "uint256"
        }
      ],
      "stateMutability": "view",
      "type": "function"
    },
    {
      "inputs": [],
      "name": "finalizeMetadata",
      "outputs": [],
      "stateMutability": "nonpayable",
      "type": "function"
    },
    {
      "inputs": [
        {
          "internalType": "uint256",
          "name": "tokenId",
          "type": "uint256"
        }
      ],
      "name": "getApproved",
      "outputs": [
        {
          "internalType": "address",
          "name": "",
          "type": "address"
        }
      ],
      "stateMutability": "view",
      "type": "function"
    },
    {
      "inputs": [
        {
          "internalType": "address",
          "name": "owner",
          "type": "address"
        },
        {
          "internalType": "address",
          "name": "operator",
          "type": "address"
        }
      ],
      "name": "isApprovedForAll",
      "outputs": [
        {
          "internalType": "bool",
          "name": "",
          "type": "bool"
        }
      ],
      "stateMutability": "view",
      "type": "function"
    },
    {
      "inputs": [],
      "name": "isMetadataFinal",
      "outputs": [
        {
          "internalType": "bool",
          "name": "",
          "type": "bool"
        }
      ],
      "stateMutability": "view",
      "type": "function"
    },
    {
      "inputs": [],
      "name": "isPublicSale",
      "outputs": [
        {
          "internalType": "bool",
          "name": "",
          "type": "bool"
        }
      ],
      "stateMutability": "view",
      "type": "function"
    },
    {
      "inputs": [],
      "name": "isWhitelistSale",
      "outputs": [
        {
          "internalType": "bool",
          "name": "",
          "type": "bool"
        }
      ],
      "stateMutability": "view",
      "type": "function"
    },
    {
      "inputs": [],
      "name": "maxSupply",
      "outputs": [
        {
          "internalType": "uint256",
          "name": "",
          "type": "uint256"
        }
      ],
      "stateMutability": "view",
      "type": "function"
    },
    {
      "inputs": [],
      "name": "merkleRoot",
      "outputs": [
        {
          "internalType": "bytes32",
          "name": "",
          "type": "bytes32"
        }
      ],
      "stateMutability": "view",
      "type": "function"
    },
    {
      "inputs": [
        {
          "internalType": "address",
          "name": "owner",
          "type": "address"
        }
      ],
      "name": "mintedCount",
      "outputs": [
        {
          "internalType": "uint256",
          "name": "",
          "type": "uint256"
        }
      ],
      "stateMutability": "view",
      "type": "function"
    },
    {
      "inputs": [],
      "name": "name",
      "outputs": [
        {
          "internalType": "string",
          "name": "",
          "type": "string"
        }
      ],
      "stateMutability": "view",
      "type": "function"
    },
    {
      "inputs": [],
      "name": "owner",
      "outputs": [
        {
          "internalType": "address",
          "name": "",
          "type": "address"
        }
      ],
      "stateMutability": "view",
      "type": "function"
    },
    {
      "inputs": [
        {
          "internalType": "uint256",
          "name": "tokenId",
          "type": "uint256"
        }
      ],
      "name": "ownerOf",
      "outputs": [
        {
          "internalType": "address",
          "name": "",
          "type": "address"
        }
      ],
      "stateMutability": "view",
      "type": "function"
    },
    {
      "inputs": [
        {
          "internalType": "uint256",
          "name": "quantity",
          "type": "uint256"
        },
        {
          "internalType": "bytes32[]",
          "name": "_merkleProof",
          "type": "bytes32[]"
        }
      ],
      "name": "prisonEscapeLive",
      "outputs": [],
      "stateMutability": "payable",
      "type": "function"
    },
    {
      "inputs": [
        {
          "internalType": "uint256",
          "name": "newMaxSupply",
          "type": "uint256"
        }
      ],
      "name": "reduceSupply",
      "outputs": [],
      "stateMutability": "nonpayable",
      "type": "function"
    },
    {
      "inputs": [
        {
          "internalType": "uint256",
          "name": "quantity",
          "type": "uint256"
        }
      ],
      "name": "remainingPrisoners",
      "outputs": [],
      "stateMutability": "payable",
      "type": "function"
    },
    {
      "inputs": [],
      "name": "renounceOwnership",
      "outputs": [],
      "stateMutability": "nonpayable",
      "type": "function"
    },
    {
      "inputs": [
        {
          "internalType": "string",
          "name": "url",
          "type": "string"
        }
      ],
      "name": "reveal",
      "outputs": [],
      "stateMutability": "nonpayable",
      "type": "function"
    },
    {
      "inputs": [
        {
          "internalType": "address",
          "name": "from",
          "type": "address"
        },
        {
          "internalType": "address",
          "name": "to",
          "type": "address"
        },
        {
          "internalType": "uint256",
          "name": "tokenId",
          "type": "uint256"
        }
      ],
      "name": "safeTransferFrom",
      "outputs": [],
      "stateMutability": "nonpayable",
      "type": "function"
    },
    {
      "inputs": [
        {
          "internalType": "address",
          "name": "from",
          "type": "address"
        },
        {
          "internalType": "address",
          "name": "to",
          "type": "address"
        },
        {
          "internalType": "uint256",
          "name": "tokenId",
          "type": "uint256"
        },
        {
          "internalType": "bytes",
          "name": "_data",
          "type": "bytes"
        }
      ],
      "name": "safeTransferFrom",
      "outputs": [],
      "stateMutability": "nonpayable",
      "type": "function"
    },
    {
      "inputs": [
        {
          "internalType": "address",
          "name": "operator",
          "type": "address"
        },
        {
          "internalType": "bool",
          "name": "approved",
          "type": "bool"
        }
      ],
      "name": "setApprovalForAll",
      "outputs": [],
      "stateMutability": "nonpayable",
      "type": "function"
    },
    {
      "inputs": [
        {
          "internalType": "bytes32",
          "name": "_merkleRoot",
          "type": "bytes32"
        }
      ],
      "name": "setMerkleRoot",
      "outputs": [],
      "stateMutability": "nonpayable",
      "type": "function"
    },
    {
      "inputs": [
        {
          "internalType": "bool",
          "name": "value",
          "type": "bool"
        }
      ],
      "name": "setPublicSale",
      "outputs": [],
      "stateMutability": "nonpayable",
      "type": "function"
    },
    {
      "inputs": [
        {
          "internalType": "bool",
          "name": "value",
          "type": "bool"
        }
      ],
      "name": "setWhitelistSale",
      "outputs": [],
      "stateMutability": "nonpayable",
      "type": "function"
    },
    {
      "inputs": [
        {
          "internalType": "bytes4",
          "name": "interfaceId",
          "type": "bytes4"
        }
      ],
      "name": "supportsInterface",
      "outputs": [
        {
          "internalType": "bool",
          "name": "",
          "type": "bool"
        }
      ],
      "stateMutability": "view",
      "type": "function"
    },
    {
      "inputs": [],
      "name": "symbol",
      "outputs": [
        {
          "internalType": "string",
          "name": "",
          "type": "string"
        }
      ],
      "stateMutability": "view",
      "type": "function"
    },
    {
      "inputs": [
        {
          "internalType": "uint256",
          "name": "tokenId",
          "type": "uint256"
        }
      ],
      "name": "tokenURI",
      "outputs": [
        {
          "internalType": "string",
          "name": "",
          "type": "string"
        }
      ],
      "stateMutability": "view",
      "type": "function"
    },
    {
      "inputs": [],
      "name": "totalSupply",
      "outputs": [
        {
          "internalType": "uint256",
          "name": "",
          "type": "uint256"
        }
      ],
      "stateMutability": "view",
      "type": "function"
    },
    {
      "inputs": [
        {
          "internalType": "address",
          "name": "from",
          "type": "address"
        },
        {
          "internalType": "address",
          "name": "to",
          "type": "address"
        },
        {
          "internalType": "uint256",
          "name": "tokenId",
          "type": "uint256"
        }
      ],
      "name": "transferFrom",
      "outputs": [],
      "stateMutability": "nonpayable",
      "type": "function"
    },
    {
      "inputs": [
        {
          "internalType": "address",
          "name": "newOwner",
          "type": "address"
        }
      ],
      "name": "transferOwnership",
      "outputs": [],
      "stateMutability": "nonpayable",
      "type": "function"
    },
    {
      "inputs": [],
      "name": "withdraw",
      "outputs": [],
      "stateMutability": "nonpayable",
      "type": "function"
    }
  ],
  "bytecode": "0x60806040526113886009556000600a60006101000a81548160ff0219169083151502179055506000600a60016101000a81548160ff0219169083151502179055503480156200004d57600080fd5b506040518060400160405280600981526020017f54687567204369747900000000000000000000000000000000000000000000008152506040518060400160405280600281526020017f54430000000000000000000000000000000000000000000000000000000000008152508160029080519060200190620000d292919062000201565b508060039080519060200190620000eb92919062000201565b50620000fc6200012a60201b60201c565b600081905550505062000124620001186200013360201b60201c565b6200013b60201b60201c565b62000316565b60006001905090565b600033905090565b6000600860009054906101000a900473ffffffffffffffffffffffffffffffffffffffff16905081600860006101000a81548173ffffffffffffffffffffffffffffffffffffffff021916908373ffffffffffffffffffffffffffffffffffffffff1602179055508173ffffffffffffffffffffffffffffffffffffffff168173ffffffffffffffffffffffffffffffffffffffff167f8be0079c531659141344cd1fd0a4f28419497f9722a3daafe3b4186f6b6457e060405160405180910390a35050565b8280546200020f90620002b1565b90600052602060002090601f0160209004810192826200023357600085556200027f565b82601f106200024e57805160ff19168380011785556200027f565b828001600101855582156200027f579182015b828111156200027e57825182559160200191906001019062000261565b5b5090506200028e919062000292565b5090565b5b80821115620002ad57600081600090555060010162000293565b5090565b60006002820490506001821680620002ca57607f821691505b60208210811415620002e157620002e0620002e7565b5b50919050565b7f4e487b7100000000000000000000000000000000000000000000000000000000600052602260045260246000fd5b613aae80620003266000396000f3fe6080604052600436106102045760003560e01c806370a0823111610118578063b88d4fde116100a0578063e985e9c51161006f578063e985e9c514610720578063f2fde38b1461075d578063f4a560a514610786578063fb55d8311461079d578063fddcb5ea146107b957610204565b8063b88d4fde14610666578063c87b56dd1461068f578063ca7ce3ec146106cc578063d5abeb01146106f557610204565b80638ba4cc3c116100e75780638ba4cc3c146105935780638da5cb5b146105bc57806395d89b41146105e7578063a22cb46514610612578063a5a865dc1461063b57610204565b806370a08231146104ed578063715018a61461052a5780637cb6475914610541578063806234441461056a57610204565b806323b872dd1161019b5780634a0e50f21161016a5780634a0e50f2146104175780634c261247146104335780635aca1bb61461045c5780636178d899146104855780636352211e146104b057610204565b806323b872dd146103835780632eb4a7ab146103ac5780633ccfd60b146103d757806342842e0e146103ee57610204565b80630de76de4116101d75780630de76de4146102d757806311094c79146103025780631455b1e21461032d57806318160ddd1461035857610204565b806301ffc9a71461020957806306fdde0314610246578063081812fc14610271578063095ea7b3146102ae575b600080fd5b34801561021557600080fd5b50610230600480360381019061022b9190612bc3565b6107f6565b60405161023d9190613087565b60405180910390f35b34801561025257600080fd5b5061025b610888565b60405161026891906130bd565b60405180910390f35b34801561027d57600080fd5b5061029860048036038101906102939190612c56565b61091a565b6040516102a59190613020565b60405180910390f35b3480156102ba57600080fd5b506102d560048036038101906102d09190612b35565b610999565b005b3480156102e357600080fd5b506102ec610add565b6040516102f99190613087565b60405180910390f35b34801561030e57600080fd5b50610317610af0565b604051610324919061329f565b60405180910390f35b34801561033957600080fd5b50610342610afb565b60405161034f9190613087565b60405180910390f35b34801561036457600080fd5b5061036d610b0e565b60405161037a919061329f565b60405180910390f35b34801561038f57600080fd5b506103aa60048036038101906103a59190612a2f565b610b25565b005b3480156103b857600080fd5b506103c1610e4a565b6040516103ce91906130a2565b60405180910390f35b3480156103e357600080fd5b506103ec610e50565b005b3480156103fa57600080fd5b5061041560048036038101906104109190612a2f565b610ef1565b005b610431600480360381019061042c9190612c7f565b610f11565b005b34801561043f57600080fd5b5061045a60048036038101906104559190612c15565b61129e565b005b34801561046857600080fd5b50610483600480360381019061047e9190612b71565b611310565b005b34801561049157600080fd5b5061049a611335565b6040516104a7919061329f565b60405180910390f35b3480156104bc57600080fd5b506104d760048036038101906104d29190612c56565b611340565b6040516104e49190613020565b60405180910390f35b3480156104f957600080fd5b50610514600480360381019061050f91906129ca565b611352565b604051610521919061329f565b60405180910390f35b34801561053657600080fd5b5061053f61140b565b005b34801561054d57600080fd5b5061056860048036038101906105639190612b9a565b61141f565b005b34801561057657600080fd5b50610591600480360381019061058c9190612c56565b611431565b005b34801561059f57600080fd5b506105ba60048036038101906105b59190612b35565b611443565b005b3480156105c857600080fd5b506105d16114b0565b6040516105de9190613020565b60405180910390f35b3480156105f357600080fd5b506105fc6114da565b60405161060991906130bd565b60405180910390f35b34801561061e57600080fd5b5061063960048036038101906106349190612af9565b61156c565b005b34801561064757600080fd5b506106506116e4565b60405161065d9190613087565b60405180910390f35b34801561067257600080fd5b5061068d60048036038101906106889190612a7e565b6116f7565b005b34801561069b57600080fd5b506106b660048036038101906106b19190612c56565b61176a565b6040516106c391906130bd565b60405180910390f35b3480156106d857600080fd5b506106f360048036038101906106ee9190612b71565b611812565b005b34801561070157600080fd5b5061070a611837565b604051610717919061329f565b60405180910390f35b34801561072c57600080fd5b50610747600480360381019061074291906129f3565b61183d565b6040516107549190613087565b60405180910390f35b34801561076957600080fd5b50610784600480360381019061077f91906129ca565b6118d1565b005b34801561079257600080fd5b5061079b611955565b005b6107b760048036038101906107b29190612c56565b61197a565b005b3480156107c557600080fd5b506107e060048036038101906107db91906129ca565b611c8e565b6040516107ed919061329f565b60405180910390f35b60006301ffc9a760e01b827bffffffffffffffffffffffffffffffffffffffffffffffffffffffff1916148061085157506380ac58cd60e01b827bffffffffffffffffffffffffffffffffffffffffffffffffffffffff1916145b806108815750635b5e139f60e01b827bffffffffffffffffffffffffffffffffffffffffffffffffffffffff1916145b9050919050565b6060600280546108979061352b565b80601f01602080910402602001604051908101604052809291908181526020018280546108c39061352b565b80156109105780601f106108e557610100808354040283529160200191610910565b820191906000526020600020905b8154815290600101906020018083116108f357829003601f168201915b5050505050905090565b600061092582611cd7565b61095b576040517fcf4700e400000000000000000000000000000000000000000000000000000000815260040160405180910390fd5b6006600083815260200190815260200160002060000160009054906101000a900473ffffffffffffffffffffffffffffffffffffffff169050919050565b60006109a482611340565b90508073ffffffffffffffffffffffffffffffffffffffff166109c5611d36565b73ffffffffffffffffffffffffffffffffffffffff1614610a28576109f1816109ec611d36565b61183d565b610a27576040517fcfb3b94200000000000000000000000000000000000000000000000000000000815260040160405180910390fd5b5b826006600084815260200190815260200160002060000160006101000a81548173ffffffffffffffffffffffffffffffffffffffff021916908373ffffffffffffffffffffffffffffffffffffffff160217905550818373ffffffffffffffffffffffffffffffffffffffff168273ffffffffffffffffffffffffffffffffffffffff167f8c5be1e5ebec7d5bd14f71427d1e84f3dd0314c0f7b2291e5b200ac8c7c3b92560405160405180910390a4505050565b600a60029054906101000a900460ff1681565b66470de4df82000081565b600a60019054906101000a900460ff1681565b6000610b18611d3e565b6001546000540303905090565b6000610b3082611d47565b90508373ffffffffffffffffffffffffffffffffffffffff168173ffffffffffffffffffffffffffffffffffffffff1614610b97576040517fa114810000000000000000000000000000000000000000000000000000000000815260040160405180910390fd5b600080610ba384611e15565b91509150610bb98187610bb4611d36565b611e3c565b610c0557610bce86610bc9611d36565b61183d565b610c04576040517f59c896be00000000000000000000000000000000000000000000000000000000815260040160405180910390fd5b5b600073ffffffffffffffffffffffffffffffffffffffff168573ffffffffffffffffffffffffffffffffffffffff161415610c6c576040517fea553b3400000000000000000000000000000000000000000000000000000000815260040160405180910390fd5b610c798686866001611e80565b8015610c8457600082555b600560008773ffffffffffffffffffffffffffffffffffffffff1673ffffffffffffffffffffffffffffffffffffffff168152602001908152602001600020600081546001900391905081905550600560008673ffffffffffffffffffffffffffffffffffffffff1673ffffffffffffffffffffffffffffffffffffffff1681526020019081526020016000206000815460010191905081905550610d5285610d2e888887611e86565b7c020000000000000000000000000000000000000000000000000000000017611eae565b600460008681526020019081526020016000208190555060007c020000000000000000000000000000000000000000000000000000000084161415610dda576000600185019050600060046000838152602001908152602001600020541415610dd8576000548114610dd7578360046000838152602001908152602001600020819055505b5b505b838573ffffffffffffffffffffffffffffffffffffffff168773ffffffffffffffffffffffffffffffffffffffff167fddf252ad1be2c89b69c2b068fc378daa952ba7f163c4a11628f55a4df523b3ef60405160405180910390a4610e428686866001611ed9565b505050505050565b600c5481565b610e58611edf565b600047905060008111610ea0576040517f08c379a0000000000000000000000000000000000000000000000000000000008152600401610e979061311f565b60405180910390fd5b610ea86114b0565b73ffffffffffffffffffffffffffffffffffffffff166108fc829081150290604051600060405180830381858888f19350505050158015610eed573d6000803e3d6000fd5b5050565b610f0c838383604051806020016040528060008152506116f7565b505050565b600a60019054906101000a900460ff16610f60576040517f08c379a0000000000000000000000000000000000000000000000000000000008152600401610f579061327f565b60405180910390fd5b60008211610fa3576040517f08c379a0000000000000000000000000000000000000000000000000000000008152600401610f9a9061317f565b60405180910390fd5b60095482610faf610b0e565b610fb991906133b0565b1115610ffa576040517f08c379a0000000000000000000000000000000000000000000000000000000008152600401610ff19061313f565b60405180910390fd5b6000600d60003373ffffffffffffffffffffffffffffffffffffffff1673ffffffffffffffffffffffffffffffffffffffff168152602001908152602001600020541461107c576040517f08c379a00000000000000000000000000000000000000000000000000000000081526004016110739061315f565b60405180910390fd5b60003360405160200161108f9190612fd6565b6040516020818303038152906040528051906020012090506110b482600c5483611f5d565b6110f3576040517f08c379a00000000000000000000000000000000000000000000000000000000081526004016110ea906131df565b60405180910390fd5b6001831415611145576000341015611140576040517f08c379a00000000000000000000000000000000000000000000000000000000081526004016111379061321f565b60405180910390fd5b611239565b600383141561119d5766470de4df820000341015611198576040517f08c379a000000000000000000000000000000000000000000000000000000000815260040161118f9061321f565b60405180910390fd5b611238565b60058314156111f557667c5850872380003410156111f0576040517f08c379a00000000000000000000000000000000000000000000000000000000081526004016111e79061321f565b60405180910390fd5b611237565b6000611236576040517f08c379a000000000000000000000000000000000000000000000000000000000815260040161122d9061323f565b60405180910390fd5b5b5b5b82600d60003373ffffffffffffffffffffffffffffffffffffffff1673ffffffffffffffffffffffffffffffffffffffff168152602001908152602001600020600082825461128891906133b0565b925050819055506112993384611f74565b505050565b6112a6611edf565b600a60029054906101000a900460ff16156112f6576040517f08c379a00000000000000000000000000000000000000000000000000000000081526004016112ed906130df565b60405180910390fd5b80600b908051906020019061130c929190612743565b5050565b611318611edf565b80600a60006101000a81548160ff02191690831515021790555050565b667c58508723800081565b600061134b82611d47565b9050919050565b60008073ffffffffffffffffffffffffffffffffffffffff168273ffffffffffffffffffffffffffffffffffffffff1614156113ba576040517f8f4eb60400000000000000000000000000000000000000000000000000000000815260040160405180910390fd5b67ffffffffffffffff600560008473ffffffffffffffffffffffffffffffffffffffff1673ffffffffffffffffffffffffffffffffffffffff16815260200190815260200160002054169050919050565b611413611edf565b61141d6000611f92565b565b611427611edf565b80600c8190555050565b611439611edf565b8060098190555050565b61144b611edf565b60095481611457612058565b61146191906133b0565b11156114a2576040517f08c379a0000000000000000000000000000000000000000000000000000000008152600401611499906131ff565b60405180910390fd5b6114ac8282611f74565b5050565b6000600860009054906101000a900473ffffffffffffffffffffffffffffffffffffffff16905090565b6060600380546114e99061352b565b80601f01602080910402602001604051908101604052809291908181526020018280546115159061352b565b80156115625780601f1061153757610100808354040283529160200191611562565b820191906000526020600020905b81548152906001019060200180831161154557829003601f168201915b5050505050905090565b611574611d36565b73ffffffffffffffffffffffffffffffffffffffff168273ffffffffffffffffffffffffffffffffffffffff1614156115d9576040517fb06307db00000000000000000000000000000000000000000000000000000000815260040160405180910390fd5b80600760006115e6611d36565b73ffffffffffffffffffffffffffffffffffffffff1673ffffffffffffffffffffffffffffffffffffffff16815260200190815260200160002060008473ffffffffffffffffffffffffffffffffffffffff1673ffffffffffffffffffffffffffffffffffffffff16815260200190815260200160002060006101000a81548160ff0219169083151502179055508173ffffffffffffffffffffffffffffffffffffffff16611693611d36565b73ffffffffffffffffffffffffffffffffffffffff167f17307eab39ab6107e8899845ad3d59bd9653f200f220920489ca2b5937696c31836040516116d89190613087565b60405180910390a35050565b600a60009054906101000a900460ff1681565b611702848484610b25565b60008373ffffffffffffffffffffffffffffffffffffffff163b146117645761172d8484848461206b565b611763576040517fd1a57ed600000000000000000000000000000000000000000000000000000000815260040160405180910390fd5b5b50505050565b606061177582611cd7565b6117b4576040517f08c379a00000000000000000000000000000000000000000000000000000000081526004016117ab906131bf565b60405180910390fd5b60006117be6121cb565b51116117d9576040518060200160405280600081525061180b565b6117e16121cb565b6117ea8361225d565b6040516020016117fb929190612ff1565b6040516020818303038152906040525b9050919050565b61181a611edf565b80600a60016101000a81548160ff02191690831515021790555050565b60095481565b6000600760008473ffffffffffffffffffffffffffffffffffffffff1673ffffffffffffffffffffffffffffffffffffffff16815260200190815260200160002060008373ffffffffffffffffffffffffffffffffffffffff1673ffffffffffffffffffffffffffffffffffffffff16815260200190815260200160002060009054906101000a900460ff16905092915050565b6118d9611edf565b600073ffffffffffffffffffffffffffffffffffffffff168173ffffffffffffffffffffffffffffffffffffffff161415611949576040517f08c379a0000000000000000000000000000000000000000000000000000000008152600401611940906130ff565b60405180910390fd5b61195281611f92565b50565b61195d611edf565b6001600a60026101000a81548160ff021916908315150217905550565b600a60009054906101000a900460ff166119c9576040517f08c379a00000000000000000000000000000000000000000000000000000000081526004016119c09061325f565b60405180910390fd5b60008111611a0c576040517f08c379a0000000000000000000000000000000000000000000000000000000008152600401611a039061317f565b60405180910390fd5b60095481611a18610b0e565b611a2291906133b0565b1115611a63576040517f08c379a0000000000000000000000000000000000000000000000000000000008152600401611a5a9061313f565b60405180910390fd5b6000600d60003373ffffffffffffffffffffffffffffffffffffffff1673ffffffffffffffffffffffffffffffffffffffff1681526020019081526020016000205414611ae5576040517f08c379a0000000000000000000000000000000000000000000000000000000008152600401611adc9061315f565b60405180910390fd5b6001811415611b37576000341015611b32576040517f08c379a0000000000000000000000000000000000000000000000000000000008152600401611b299061321f565b60405180910390fd5b611c2b565b6003811415611b8f5766470de4df820000341015611b8a576040517f08c379a0000000000000000000000000000000000000000000000000000000008152600401611b819061321f565b60405180910390fd5b611c2a565b6005811415611be757667c585087238000341015611be2576040517f08c379a0000000000000000000000000000000000000000000000000000000008152600401611bd99061321f565b60405180910390fd5b611c29565b6000611c28576040517f08c379a0000000000000000000000000000000000000000000000000000000008152600401611c1f9061323f565b60405180910390fd5b5b5b5b80600d60003373ffffffffffffffffffffffffffffffffffffffff1673ffffffffffffffffffffffffffffffffffffffff1681526020019081526020016000206000828254611c7a91906133b0565b92505081905550611c8b3382611f74565b50565b6000600d60008373ffffffffffffffffffffffffffffffffffffffff1673ffffffffffffffffffffffffffffffffffffffff168152602001908152602001600020549050919050565b600081611ce2611d3e565b11158015611cf1575060005482105b8015611d2f575060007c0100000000000000000000000000000000000000000000000000000000600460008581526020019081526020016000205416145b9050919050565b600033905090565b60006001905090565b60008082905080611d56611d3e565b11611dde57600054811015611ddd5760006004600083815260200190815260200160002054905060007c010000000000000000000000000000000000000000000000000000000082161415611ddb575b6000811415611dd1576004600083600190039350838152602001908152602001600020549050611da6565b8092505050611e10565b505b5b6040517fdf2d9b4200000000000000000000000000000000000000000000000000000000815260040160405180910390fd5b919050565b60008060006006600085815260200190815260200160002090508092508254915050915091565b600073ffffffffffffffffffffffffffffffffffffffff8316925073ffffffffffffffffffffffffffffffffffffffff821691508382148383141790509392505050565b50505050565b60008060e883901c905060e8611e9d86868461240a565b62ffffff16901b9150509392505050565b600073ffffffffffffffffffffffffffffffffffffffff83169250814260a01b178317905092915050565b50505050565b611ee7612413565b73ffffffffffffffffffffffffffffffffffffffff16611f056114b0565b73ffffffffffffffffffffffffffffffffffffffff1614611f5b576040517f08c379a0000000000000000000000000000000000000000000000000000000008152600401611f529061319f565b60405180910390fd5b565b600082611f6a858461241b565b1490509392505050565b611f8e828260405180602001604052806000815250612497565b5050565b6000600860009054906101000a900473ffffffffffffffffffffffffffffffffffffffff16905081600860006101000a81548173ffffffffffffffffffffffffffffffffffffffff021916908373ffffffffffffffffffffffffffffffffffffffff1602179055508173ffffffffffffffffffffffffffffffffffffffff168173ffffffffffffffffffffffffffffffffffffffff167f8be0079c531659141344cd1fd0a4f28419497f9722a3daafe3b4186f6b6457e060405160405180910390a35050565b6000612062611d3e565b60005403905090565b60008373ffffffffffffffffffffffffffffffffffffffff1663150b7a02612091611d36565b8786866040518563ffffffff1660e01b81526004016120b3949392919061303b565b602060405180830381600087803b1580156120cd57600080fd5b505af19250505080156120fe57506040513d601f19601f820116820180604052508101906120fb9190612bec565b60015b612178573d806000811461212e576040519150601f19603f3d011682016040523d82523d6000602084013e612133565b606091505b50600081511415612170576040517fd1a57ed600000000000000000000000000000000000000000000000000000000815260040160405180910390fd5b805181602001fd5b63150b7a0260e01b7bffffffffffffffffffffffffffffffffffffffffffffffffffffffff1916817bffffffffffffffffffffffffffffffffffffffffffffffffffffffff191614915050949350505050565b6060600b80546121da9061352b565b80601f01602080910402602001604051908101604052809291908181526020018280546122069061352b565b80156122535780601f1061222857610100808354040283529160200191612253565b820191906000526020600020905b81548152906001019060200180831161223657829003601f168201915b5050505050905090565b606060008214156122a5576040518060400160405280600181526020017f30000000000000000000000000000000000000000000000000000000000000008152509050612405565b600082905060005b600082146122d75780806122c09061358e565b915050600a826122d09190613406565b91506122ad565b60008167ffffffffffffffff811115612319577f4e487b7100000000000000000000000000000000000000000000000000000000600052604160045260246000fd5b6040519080825280601f01601f19166020018201604052801561234b5781602001600182028036833780820191505090505b5090505b600085146123fe576001826123649190613437565b9150600a8561237391906135fb565b603061237f91906133b0565b60f81b8183815181106123bb577f4e487b7100000000000000000000000000000000000000000000000000000000600052603260045260246000fd5b60200101907effffffffffffffffffffffffffffffffffffffffffffffffffffffffffffff1916908160001a905350600a856123f79190613406565b945061234f565b8093505050505b919050565b60009392505050565b600033905090565b60008082905060005b845181101561248c576124778286838151811061246a577f4e487b7100000000000000000000000000000000000000000000000000000000600052603260045260246000fd5b6020026020010151612534565b915080806124849061358e565b915050612424565b508091505092915050565b6124a1838361255f565b60008373ffffffffffffffffffffffffffffffffffffffff163b1461252f57600080549050600083820390505b6124e1600086838060010194508661206b565b612517576040517fd1a57ed600000000000000000000000000000000000000000000000000000000815260040160405180910390fd5b8181106124ce57816000541461252c57600080fd5b50505b505050565b600081831061254c57612547828461271c565b612557565b612556838361271c565b5b905092915050565b60008054905060008214156125a0576040517fb562e8dd00000000000000000000000000000000000000000000000000000000815260040160405180910390fd5b6125ad6000848385611e80565b600160406001901b178202600560008573ffffffffffffffffffffffffffffffffffffffff1673ffffffffffffffffffffffffffffffffffffffff16815260200190815260200160002060008282540192505081905550612624836126156000866000611e86565b61261e85612733565b17611eae565b6004600083815260200190815260200160002081905550600080838301905073ffffffffffffffffffffffffffffffffffffffff85169150828260007fddf252ad1be2c89b69c2b068fc378daa952ba7f163c4a11628f55a4df523b3ef600080a4600183015b8181146126c557808360007fddf252ad1be2c89b69c2b068fc378daa952ba7f163c4a11628f55a4df523b3ef600080a460018101905061268a565b506000821415612701576040517f2e07630000000000000000000000000000000000000000000000000000000000815260040160405180910390fd5b8060008190555050506127176000848385611ed9565b505050565b600082600052816020526040600020905092915050565b60006001821460e11b9050919050565b82805461274f9061352b565b90600052602060002090601f01602090048101928261277157600085556127b8565b82601f1061278a57805160ff19168380011785556127b8565b828001600101855582156127b8579182015b828111156127b757825182559160200191906001019061279c565b5b5090506127c591906127c9565b5090565b5b808211156127e25760008160009055506001016127ca565b5090565b60006127f96127f4846132df565b6132ba565b9050808382526020820190508285602086028201111561281857600080fd5b60005b85811015612848578161282e8882612922565b84526020840193506020830192505060018101905061281b565b5050509392505050565b60006128656128608461330b565b6132ba565b90508281526020810184848401111561287d57600080fd5b6128888482856134e9565b509392505050565b60006128a361289e8461333c565b6132ba565b9050828152602081018484840111156128bb57600080fd5b6128c68482856134e9565b509392505050565b6000813590506128dd81613a05565b92915050565b600082601f8301126128f457600080fd5b81356129048482602086016127e6565b91505092915050565b60008135905061291c81613a1c565b92915050565b60008135905061293181613a33565b92915050565b60008135905061294681613a4a565b92915050565b60008151905061295b81613a4a565b92915050565b600082601f83011261297257600080fd5b8135612982848260208601612852565b91505092915050565b600082601f83011261299c57600080fd5b81356129ac848260208601612890565b91505092915050565b6000813590506129c481613a61565b92915050565b6000602082840312156129dc57600080fd5b60006129ea848285016128ce565b91505092915050565b60008060408385031215612a0657600080fd5b6000612a14858286016128ce565b9250506020612a25858286016128ce565b9150509250929050565b600080600060608486031215612a4457600080fd5b6000612a52868287016128ce565b9350506020612a63868287016128ce565b9250506040612a74868287016129b5565b9150509250925092565b60008060008060808587031215612a9457600080fd5b6000612aa2878288016128ce565b9450506020612ab3878288016128ce565b9350506040612ac4878288016129b5565b925050606085013567ffffffffffffffff811115612ae157600080fd5b612aed87828801612961565b91505092959194509250565b60008060408385031215612b0c57600080fd5b6000612b1a858286016128ce565b9250506020612b2b8582860161290d565b9150509250929050565b60008060408385031215612b4857600080fd5b6000612b56858286016128ce565b9250506020612b67858286016129b5565b9150509250929050565b600060208284031215612b8357600080fd5b6000612b918482850161290d565b91505092915050565b600060208284031215612bac57600080fd5b6000612bba84828501612922565b91505092915050565b600060208284031215612bd557600080fd5b6000612be384828501612937565b91505092915050565b600060208284031215612bfe57600080fd5b6000612c0c8482850161294c565b91505092915050565b600060208284031215612c2757600080fd5b600082013567ffffffffffffffff811115612c4157600080fd5b612c4d8482850161298b565b91505092915050565b600060208284031215612c6857600080fd5b6000612c76848285016129b5565b91505092915050565b60008060408385031215612c9257600080fd5b6000612ca0858286016129b5565b925050602083013567ffffffffffffffff811115612cbd57600080fd5b612cc9858286016128e3565b9150509250929050565b612cdc8161346b565b82525050565b612cf3612cee8261346b565b6135d7565b82525050565b612d028161347d565b82525050565b612d1181613489565b82525050565b6000612d228261336d565b612d2c8185613383565b9350612d3c8185602086016134f8565b612d45816136e8565b840191505092915050565b6000612d5b82613378565b612d658185613394565b9350612d758185602086016134f8565b612d7e816136e8565b840191505092915050565b6000612d9482613378565b612d9e81856133a5565b9350612dae8185602086016134f8565b80840191505092915050565b6000612dc7601583613394565b9150612dd282613706565b602082019050919050565b6000612dea602683613394565b9150612df58261372f565b604082019050919050565b6000612e0d600a83613394565b9150612e188261377e565b602082019050919050565b6000612e30602583613394565b9150612e3b826137a7565b604082019050919050565b6000612e53601883613394565b9150612e5e826137f6565b602082019050919050565b6000612e766005836133a5565b9150612e818261381f565b600582019050919050565b6000612e99602883613394565b9150612ea482613848565b604082019050919050565b6000612ebc602083613394565b9150612ec782613897565b602082019050919050565b6000612edf602f83613394565b9150612eea826138c0565b604082019050919050565b6000612f02600f83613394565b9150612f0d8261390f565b602082019050919050565b6000612f25601d83613394565b9150612f3082613938565b602082019050919050565b6000612f48601883613394565b9150612f5382613961565b602082019050919050565b6000612f6b601d83613394565b9150612f768261398a565b602082019050919050565b6000612f8e601783613394565b9150612f99826139b3565b602082019050919050565b6000612fb1601383613394565b9150612fbc826139dc565b602082019050919050565b612fd0816134df565b82525050565b6000612fe28284612ce2565b60148201915081905092915050565b6000612ffd8285612d89565b91506130098284612d89565b915061301482612e69565b91508190509392505050565b60006020820190506130356000830184612cd3565b92915050565b60006080820190506130506000830187612cd3565b61305d6020830186612cd3565b61306a6040830185612fc7565b818103606083015261307c8184612d17565b905095945050505050565b600060208201905061309c6000830184612cf9565b92915050565b60006020820190506130b76000830184612d08565b92915050565b600060208201905081810360008301526130d78184612d50565b905092915050565b600060208201905081810360008301526130f881612dba565b9050919050565b6000602082019050818103600083015261311881612ddd565b9050919050565b6000602082019050818103600083015261313881612e00565b9050919050565b6000602082019050818103600083015261315881612e23565b9050919050565b6000602082019050818103600083015261317881612e46565b9050919050565b6000602082019050818103600083015261319881612e8c565b9050919050565b600060208201905081810360008301526131b881612eaf565b9050919050565b600060208201905081810360008301526131d881612ed2565b9050919050565b600060208201905081810360008301526131f881612ef5565b9050919050565b6000602082019050818103600083015261321881612f18565b9050919050565b6000602082019050818103600083015261323881612f3b565b9050919050565b6000602082019050818103600083015261325881612f5e565b9050919050565b6000602082019050818103600083015261327881612f81565b9050919050565b6000602082019050818103600083015261329881612fa4565b9050919050565b60006020820190506132b46000830184612fc7565b92915050565b60006132c46132d5565b90506132d0828261355d565b919050565b6000604051905090565b600067ffffffffffffffff8211156132fa576132f96136b9565b5b602082029050602081019050919050565b600067ffffffffffffffff821115613326576133256136b9565b5b61332f826136e8565b9050602081019050919050565b600067ffffffffffffffff821115613357576133566136b9565b5b613360826136e8565b9050602081019050919050565b600081519050919050565b600081519050919050565b600082825260208201905092915050565b600082825260208201905092915050565b600081905092915050565b60006133bb826134df565b91506133c6836134df565b9250827fffffffffffffffffffffffffffffffffffffffffffffffffffffffffffffffff038211156133fb576133fa61362c565b5b828201905092915050565b6000613411826134df565b915061341c836134df565b92508261342c5761342b61365b565b5b828204905092915050565b6000613442826134df565b915061344d836134df565b9250828210156134605761345f61362c565b5b828203905092915050565b6000613476826134bf565b9050919050565b60008115159050919050565b6000819050919050565b60007fffffffff0000000000000000000000000000000000000000000000000000000082169050919050565b600073ffffffffffffffffffffffffffffffffffffffff82169050919050565b6000819050919050565b82818337600083830152505050565b60005b838110156135165780820151818401526020810190506134fb565b83811115613525576000848401525b50505050565b6000600282049050600182168061354357607f821691505b602082108114156135575761355661368a565b5b50919050565b613566826136e8565b810181811067ffffffffffffffff82111715613585576135846136b9565b5b80604052505050565b6000613599826134df565b91507fffffffffffffffffffffffffffffffffffffffffffffffffffffffffffffffff8214156135cc576135cb61362c565b5b600182019050919050565b60006135e2826135e9565b9050919050565b60006135f4826136f9565b9050919050565b6000613606826134df565b9150613611836134df565b9250826136215761362061365b565b5b828206905092915050565b7f4e487b7100000000000000000000000000000000000000000000000000000000600052601160045260246000fd5b7f4e487b7100000000000000000000000000000000000000000000000000000000600052601260045260246000fd5b7f4e487b7100000000000000000000000000000000000000000000000000000000600052602260045260246000fd5b7f4e487b7100000000000000000000000000000000000000000000000000000000600052604160045260246000fd5b6000601f19601f8301169050919050565b60008160601b9050919050565b7f4d657461646174612069732066696e616c697a65640000000000000000000000600082015250565b7f4f776e61626c653a206e6577206f776e657220697320746865207a65726f206160008201527f6464726573730000000000000000000000000000000000000000000000000000602082015250565b7f4e6f2062616c616e636500000000000000000000000000000000000000000000600082015250565b7f5175616e746974792065786365656473206d617820737570706c79206f66207460008201527f6f6b656e73000000000000000000000000000000000000000000000000000000602082015250565b7f596f75206861766520616c7265616479206d696e7465642e0000000000000000600082015250565b7f2e6a736f6e000000000000000000000000000000000000000000000000000000600082015250565b7f5175616e74697479206f6620746f6b656e73206d75737420626520626967676560008201527f72207468616e2030000000000000000000000000000000000000000000000000602082015250565b7f4f776e61626c653a2063616c6c6572206973206e6f7420746865206f776e6572600082015250565b7f4552433732314d657461646174613a2055524920717565727920666f72206e6f60008201527f6e6578697374656e7420746f6b656e0000000000000000000000000000000000602082015250565b7f496e636f72726563742070726f6f660000000000000000000000000000000000600082015250565b7f5468756720436974793a2045786365656473206d617820737570706c79000000600082015250565b7f496e73756666696369656e742065746865722076616c75650000000000000000600082015250565b7f596f752063616e206f6e6c79206d616b6520312c20332c206f7220352e000000600082015250565b7f5075626c69632073616c65206973206e6f74206f70656e000000000000000000600082015250565b7f574c2073616c65206973206e6f74206f70656e00000000000000000000000000600082015250565b613a0e8161346b565b8114613a1957600080fd5b50565b613a258161347d565b8114613a3057600080fd5b50565b613a3c81613489565b8114613a4757600080fd5b50565b613a5381613493565b8114613a5e57600080fd5b50565b613a6a816134df565b8114613a7557600080fd5b5056fea264697066735822122067da0910b0a4aad5ff98574be779fb6261d4d1033ff09fc16d416910fcbbe11d64736f6c63430008040033",
  "linkReferences": {},
  "deployedLinkReferences": {}
}